:020000040000FA
:0400000007EF00F016
:0A000800578265ED08F0BFEF0AF023
:100800000054454D504F20504C41594552313A20EB
:100810003D202564206D730054454D504F20504CB1
:1008200041594552323A203D202564206D73000025
:100830002BC041F02CC042F02DC043F02EC044F03C
:100840002FC045F030C046F031C047F032C048F00C
:1008500048BE2DEF04F030EF04F0010E31EF04F04C
:10086000000E496E4950D8B438EF04F03AEF04F066
:100870004AEF04F0481E471E461E451E441E431EF6
:10088000421E416C000E422243224422452246224F
:100890004722482255BE57EF04F0555006E1540454
:1008A000D8B055EF04F057EF04F05DEF04F0000E00
:1008B0003E6E010E3D6E61EF04F054C03DF055C038
:1008C0003EF052C03FF053C040F04950D8B46BEFF7
:1008D00004F06DEF04F084EF04F03F06D8A040066A
:1008E0004950D8A476EF04F078EF04F07EEF04F0DE
:1008F000000E3C6E2B0E3B6E82EF04F0000E3C6E41
:100900002D0E3B6E3BC049F0000E4B6E1F0E4A6E23
:10091000000E0001896F09EF05F04A06D8A04B06CA
:100920006A0E4A24D96E000E4B20DA6E41C008F0E0
:1009300042C009F043C00AF044C00BF045C00CF0BF
:1009400046C00DF047C00EF048C00FF00A0E106E02
:10095000000E116E000E126E000E136E000E146E5D
:10096000000E156E000E166E000E176E0CEC07F0E2
:1009700008C033F009C034F00AC035F00BC036F0BF
:100980000CC037F00DC038F00EC039F00FC03AF08F
:1009900033C01AF034C01BF09FEC0AF01A50300F2D
:1009A000DF6E3D06D8A03E063F06D8A0400641C0F7
:1009B00008F042C009F043C00AF044C00BF045C043
:1009C0000CF046C00DF047C00EF048C00FF00A0E04
:1009D000106E000E116E000E126E000E136E000EE1
:1009E000146E000E156E000E166E000E176E48EC9B
:1009F00006F008C041F009C042F00AC043F00BC045
:100A000044F00CC045F00DC046F00EC047F00FC0DA
:100A100048F04BBE14EF05F04B5008E14A04D8A053
:100A200014EF05F016EF05F032EF05F041504210DB
:100A3000431044104510461047104810D8A423EF27
:100A400005F025EF05F08DEF04F03EBE32EF05F026
:100A50003E5006E13D04D8B030EF05F032EF05F02E
:100A60008DEF04F04950D8B438EF05F03AEF05F0B7
:100A700045EF05F04A06D8A04B066A0E4A24D96E07
:100A8000000E4B20DA6E49C0DFFF29C01EF02AC0DD
:100A90001FF06A0E4A24206E000E4B20216E3FC0CC
:100AA00022F040C023F0F7EC09F01200938093820B
:100AB000938492969290929292949396000E836E63
:100AC000000E956E0F0EC16ECA92CA80FA0ECB6EE2
:100AD000CA9CCA9ACA98CA86F288F28CF28E000E14
:100AE000CC6ECA84000E0001A76F000EA66FD3EF74
:100AF00005F09EA27EEF05F080EF05F097EF05F080
:100B00009E9266516711D8A488EF05F08AEF05F030
:100B10008CEF05F0624B632B64516511D8A493EF01
:100B200005F095EF05F097EF05F0604B612B66053A
:100B30006711D8A49EEF05F0A0EF05F0D3EF05F004
:100B400064056511D8A4A7EF05F0A9EF05F0D3EF70
:100B500005F0000E696F000E686F6051625D6351B1
:100B6000800AA46F6151800AA459D8B0BAEF05F089
:100B7000BCEF05F0BFEF05F08082CFEF05F06251CA
:100B8000605D6151800AA46F6351800AA459D8B096
:100B9000CCEF05F0CEEF05F0CFEF05F08084000E2E
:100BA000A76F010EA66F68056911D8B4DAEF05F0DA
:100BB000DCEF05F079EF05F03BEF06F0B6EC09F05D
:100BC0000BEC0BF0010E0C6E010E7EEC0AF0010E28
:100BD00000019E6F080E9F6F62C0A0F063C0A1F07D
:100BE000D3EC0AF0020E0001A56F450EA46FA90E0A
:100BF000E82EFED7A42FFCD7A52FFAD700D0020EDF
:100C00000001A56F450EA46FA90EE82EFED7A42FF4
:100C1000FCD7A52FFAD700D0010E0C6E020E7EEC89
:100C20000AF0180E00019E6F080E9F6F60C0A0F0C2
:100C300061C0A1F0D3EC0AF0020E0001A56F450ED1
:100C4000A46FA90EE82EFED7A42FFCD7A52FFAD7A4
:100C500000D0020E0001A56F450EA46FA90EE82E6C
:100C6000FED7A42FFCD7A52FFAD700D0000E000185
:100C7000A76F000EA66FA651A711D8A442EF06F0E9
:100C800044EF06F0DEEF05F0D3EF05F007EF00F0DC
:100C9000000E196E17BE51EF06F04FEF06F063EF2E
:100CA00006F0171E161E151E141E131E121E111EF0
:100CB000106C000E11221222132214221522162269
:100CC0001722010E196E0FBE6AEF06F068EF06F0EC
:100CD0007CEF06F00F1E0E1E0D1E0C1E0B1E0A1EB4
:100CE000091E086C000E09220A220B220C220D227A
:100CF0000E220F22010E191A20EE1AF0070EDE6ADC
:100D0000E806FDE210501110121013101410151007
:100D100016101710D8B48FEF06F091EF06F0E3EF3E
:100D200006F0010E186E9FEF06F0D89010361136BF
:100D3000123613361436153616361736182A17AEED
:100D4000A4EF06F0A6EF06F095EF06F0D8901A365D
:100D50001B361C361D361E361F36203621361050E7
:100D6000085C1150095812500A5813500B5814506F
:100D70000C5815500D5816500E5817500F58D8A033
:100D8000C4EF06F0C6EF06F0D7EF06F01050085E8D
:100D90001150095A12500A5A13500B5A14500C5A37
:100DA00015500D5A16500E5A17500F5A1A80D890D7
:100DB0001732163215321432133212321132103207
:100DC000182EA6EF06F01950D8B4E9EF06F0EBEFB5
:100DD00006F0FBEF06F0211E201E1F1E1E1E1D1E0C
:100DE0001C1E1B1E1A6C000E1B221C221D221E2202
:100DF0001F22202221221AC008F01BC009F01CC0AB
:100E00000AF01DC00BF01EC00CF01FC00DF020C07A
:100E10000EF021C00FF01200000E196E0FBE15EF7C
:100E200007F013EF07F027EF07F00F1E0E1E0D1E41
:100E30000C1E0B1E0A1E091E086C000E09220A2237
:100E40000B220C220D220E220F22010E196E17BE4C
:100E50002EEF07F02CEF07F03EEF07F0171E161EDF
:100E6000151E141E131E121E111E106C000E1122D0
:100E700012221322142215221622172210501110AA
:100E8000121013101410151016101710D8B44BEFC1
:100E900007F04DEF07F095EF07F0010E186E5BEFCE
:100EA00007F0D89010361136123613361436153630
:100EB00016361736182A17AE60EF07F062EF07F004
:100EC00051EF07F01050085C1150095812500A58A1
:100ED00013500B5814500C5815500D5816500E58EE
:100EE00017500F58D8A077EF07F079EF07F089EF88
:100EF00007F01050085E1150095A12500A5A135048
:100F00000B5A14500C5A15500D5A16500E5A1750B1
:100F10000F5AD89017321632153214321332123259
:100F200011321032182E62EF07F01950D8B49BEF2F
:100F300007F09DEF07F0ADEF07F00F1E0E1E0D1E20
:100F40000C1E0B1E0A1E091E086C000E09220A2226
:100F50000B220C220D220E220F2208C008F009C01D
:100F600009F00AC00AF00BC00BF00CC00CF00DC069
:100F70000DF00EC00EF00FC00FF012004EC0D9FFE2
:100F80004FC0DAFFDECFF6FFDDCFF7FF0800F550E8
:100F9000250AD8A4CEEF07F0D0EF07F050EF08F005
:100FA0004EC0D9FF4FC0DAFFDE2A000EDD22000E50
:100FB000536E000E526E52C056F0546855684EC0C3
:100FC000D9FF4FC0DAFFDECF94F0DDCF95F094C0AB
:100FD000F6FF95C0F7FF0800F550640AD8B4F3EFA8
:100FE00007F0F5EF07F003EF08F094C0F6FF95C0A7
:100FF000F7FF0800F550690AD8A401EF08F003EFE5
:1010000008F047EF08F050C0D9FF51C0DAFFDFCF3A
:101010008AF0020EDE26DFCF8BF0000EDD228AC0C2
:10102000D9FF8BC0DAFFDECF8CF0DDCF8DF0000171
:10103000000E8DBFFF0E8E6F8F6F906F916F926F4E
:10104000936F010E94258A6F000E95218B6F4EC011
:10105000D9FF4FC0DAFF8AC0DEFF8BC0DDFF4CC076
:1010600029F04DC02AF08CC02BF08DC02CF08EC022
:101070002DF08FC02EF090C02FF091C030F092C0B4
:1010800031F093C032F018EC04F064EF08F04EC079
:10109000D9FF4FC0DAFFDE2A000EDD2264EF08F030
:1010A0004EC0D9FF4FC0DAFFDECFF6FFDDCFF7FF2E
:1010B0000800F5500E6E0F6A4CC010F04DC011F0D4
:1010C000E3EC08F047EF08F012000600F2A26BEF25
:1010D00008F06DEF08F0C5EF08F0000166516711E8
:1010E000D8A475EF08F077EF08F09FEF08F064518F
:1010F0006511D8A47EEF08F080EF08F09FEF08F0AC
:10110000000E696F010E686F8086F086F088000E11
:10111000636F000E626F000E616F000E606F808063
:10112000030E076E8A0E066E560EE82EFED7062EAA
:10113000FCD7072EFAD780908096C2EF08F066059C
:101140006711D8A4A6EF08F0A8EF08F0C2EF08F0E6
:1011500064056511D8A4AFEF08F0B1EF08F0C2EF55
:1011600008F0000E696F000E686F000E676F000ECA
:10117000666F000E656F000E646F8092809480969B
:1011800018EC0BF0F292E1EF08F0F0A0CAEF08F0D3
:10119000CCEF08F0D4EF08F0000E0001676F010EED
:1011A000666FF090E1EF08F0F0A2D9EF08F0DBEF06
:1011B00008F0E1EF08F0000E0001656F010E646FAA
:1011C000F0925792110010501110D8B4EAEF08F0C5
:1011D000ECEF08F0F5EF08F010501110D8A4F3EF81
:1011E00008F0F5EF08F0FAEF08F00E502CEC0BF0D9
:1011F0002DEF09F020EE09F01050D9261150DA2217
:10120000DE50DE10D8B407EF09F009EF09F024EF43
:1012100009F020EE09F01050D9261150DA2210EE14
:1012200003F01050E1261150E222DE50E65CE65059
:10123000800A166EDE50800A1658D8B022EF09F0E8
:1012400024EF09F02DEF09F020EE03F01050D9261D
:101250001150DA22DE2A000EDD221200096E83828E
:1012600009C008F0010E0816083A83500818EF0B61
:101270000818836E09C008F0D8900832010E0816CD
:10128000083A084683500818DF0B0818836E09C017
:1012900008F0D8900832D8900832010E0816083AA3
:1012A0000846084683500818BF0B0818836E09C00B
:1012B00008F0D8900832D8900832D8900832010E41
:1012C000081608320832835008187F0B0818836EFE
:1012D000100EE82EFED700D08392100EE82EFED717
:1012E00000D01200026E838202C001F0010E0116CE
:1012F000013A83500118EF0B0118836E02C001F010
:10130000D8900132010E0116013A014683500118AE
:10131000DF0B0118836E02C001F0D8900132D89023
:101320000132010E0116013A0146014683500118AF
:10133000BF0B0118836E02C001F0D8900132D89023
:101340000132D8900132010E011601320132835070
:1013500001187F0B0118836E100EE82EFED700D007
:101360008392100EE82EFED700D01200839283984D
:10137000839A839C839E410E0C6EEE0EE82EFED760
:101380000C2EFCD700D0030E2EEC09F0060E0C6ECE
:10139000300EE82EFED70C2EFCD700D0030E2EEC1C
:1013A00009F0210EE82EFED700F0030E2EEC09F016
:1013B000020E2EEC09F0010E0A6E000EE7EC0AF0A8
:1013C000030E0C6E980EE82EFED70C2EFCD7280EBE
:1013D0000A6E000EE7EC0AF00C0E0A6E000EE7EC47
:1013E0000AF0060E0A6E000EE7EC0AF0120023BEA9
:1013F000FCEF09F0FEEF09F004EF0AF022C027F03D
:1014000023C028F008EF0AF0000E286E000E276EA9
:10141000000E266E000E256E1AEF0AF0000E0F6EFB
:10142000200E0E6E1EC010F01FC011F0E3EC08F08D
:10143000254A262A2750255C2650800A246E2850EB
:10144000800A2458D8A027EF0AF029EF0AF00EEFFF
:101450000AF020C017F021C018F01EC019F01FC0FC
:101460001AF05CEC0AF0120098C09CF099C09DF054
:1014700048EF0AF096C04CF097C04DF09C0E4E6EAF
:10148000000E4F6E9AC050F09BC051F0BEEC07F0BA
:101490009CC0F6FF9DC0F7FF0800F5500009D8A4D6
:1014A00054EF0AF056EF0AF03AEF0AF0000E00018E
:1014B000976F000E966F1200000E1D6E000E1C6ED0
:1014C0006DEF0AF01BC00EF00F6A19C010F01AC0C1
:1014D00011F0E3EC08F01C4A1D2A1C501724D96EA9
:1014E0001D501820DA6EDF501B6E1B50D8A47BEF06
:1014F0000AF07DEF0AF062EF0AF012000D6E000EA6
:101500000E6E0D04D8A487EF0AF089EF0AF08BEF76
:101510000AF0800E0E6E020E0D18D8A492EF0AF09B
:1015200094EF0AF096EF0AF0C00E0E6E0E500C24E7
:101530000E6E0EC00AF0000EE7EC0AF012001BBEA1
:10154000ACEF0AF01B5006E11A04D8B0AAEF0AF07B
:10155000ACEF0AF0BAEF0AF01AC01CF01BC01DF085
:101560001C1E1D1E1C4A1D2A1CC01AF01DC01BF08B
:10157000BEEF0AF01AC01AF01BC01BF0120000EEFA
:1015800060F02A0EEE6AE806FDE1566A556A546A72
:10159000536A526A57905792000EF86E080EF76E13
:1015A000000156EF05F0A00E0001A26F000EA36F20
:1015B000000E966F000E976F9EC098F09FC099F036
:1015C000A20E9A6F000E9B6F34EC0AF012000B6EA5
:1015D0000BB002D0839001D0838000D000D000F007
:1015E0000A380F0B2EEC09F00A500F0B2EEC09F005
:1015F0001200046E04B002D0839001D0838000D02A
:1016000000D000F003380F0B72EC09F003500F0B01
:1016100072EC09F01200010E0A6E000EE7EC0AF0FF
:10162000030E0C6E980EE82EFED70C2EFCD712007F
:10163000010E036E000EF9EC0AF0030E056E980E13
:10164000E82EFED7052EFCD712000C6E0CC00AF057
:10165000010EE7EC0AF012000D6E0D5025EC0BF0B8
:02166000120076
:020000040020DA
:08000000FFFFFFFFFFFFFFFF00
:020000040030CA
:0E00000000001F1EFF8181FF0FC00FE00F40A8
:00000001FF
