:020000040000FA
:0400000007EF00F016
:0A000800578267ED08F0C1EF0AF01F
:100800000054454D504F204A4F4741444F522031EC
:100810003A203D202564206D730054454D504F20F3
:100820004A4F4741444F5220323A203D2025642010
:100830006D7300002BC041F02CC042F02DC043F07E
:100840002EC044F02FC045F030C046F031C047F014
:1008500032C048F048BE2FEF04F032EF04F0010E32
:1008600033EF04F0000E496E4950D8B43AEF04F06B
:100870003CEF04F04CEF04F0481E471E461E451E98
:10088000441E431E421E416C000E4222432244225B
:10089000452246224722482255BE59EF04F05550C2
:1008A00006E15404D8B057EF04F059EF04F05FEFBD
:1008B00004F0000E3E6E010E3D6E63EF04F054C076
:1008C0003DF055C03EF052C03FF053C040F049509B
:1008D000D8B46DEF04F06FEF04F086EF04F03F063C
:1008E000D8A040064950D8A478EF04F07AEF04F07D
:1008F00080EF04F0000E3C6E2B0E3B6E84EF04F094
:10090000000E3C6E2D0E3B6E3BC049F0000E4B6E50
:100910001F0E4A6E000E0001896F0BEF05F04A06AC
:10092000D8A04B066A0E4A24D96E000E4B20DA6E10
:1009300041C008F042C009F043C00AF044C00BF0C7
:1009400045C00CF046C00DF047C00EF048C00FF097
:100950000A0E106E000E116E000E126E000E136E57
:10096000000E146E000E156E000E166E000E176E41
:100970000EEC07F008C033F009C034F00AC035F0BF
:100980000BC036F00CC037F00DC038F00EC039F097
:100990000FC03AF033C01AF034C01BF0A1EC0AF0DB
:1009A0001A50300FDF6E3D06D8A03E063F06D8A095
:1009B000400641C008F042C009F043C00AF044C0FC
:1009C0000BF045C00CF046C00DF047C00EF048C01B
:1009D0000FF00A0E106E000E116E000E126E000E59
:1009E000136E000E146E000E156E000E166E000EC5
:1009F000176E4AEC06F008C041F009C042F00AC088
:100A000043F00BC044F00CC045F00DC046F00EC0E2
:100A100047F00FC048F04BBE16EF05F04B5008E111
:100A20004A04D8A016EF05F018EF05F034EF05F0F2
:100A300041504210431044104510461047104810D2
:100A4000D8A425EF05F027EF05F08FEF04F03EBEA8
:100A500034EF05F03E5006E13D04D8B032EF05F02A
:100A600034EF05F08FEF04F04950D8B43AEF05F0B9
:100A70003CEF05F047EF05F04A06D8A04B066A0E9A
:100A80004A24D96E000E4B20DA6E49C0DFFF29C020
:100A90001EF02AC01FF06A0E4A24206E000E4B2062
:100AA000216E3FC022F040C023F0F9EC09F01200A3
:100AB000938093829384929692909292929493963A
:100AC000000E836E000E956E0F0EC16ECA92CA8024
:100AD000FA0ECB6ECA9CCA9ACA98CA86F288F28C61
:100AE000F28E000ECC6ECA84000E0001A76F000EBD
:100AF000A66FD5EF05F09EA280EF05F082EF05F01E
:100B000099EF05F09E9266516711D8A48AEF05F01F
:100B10008CEF05F08EEF05F0624B632B645165118D
:100B2000D8A495EF05F097EF05F099EF05F0604B2D
:100B3000612B66056711D8A4A0EF05F0A2EF05F0C0
:100B4000D5EF05F064056511D8A4A9EF05F0ABEF6A
:100B500005F0D5EF05F0000E696F000E686F60516B
:100B6000625D6351800AA46F6151800AA459D8B0B4
:100B7000BCEF05F0BEEF05F0C1EF05F08082D1EFCC
:100B800005F06251605D6151800AA46F6351800A73
:100B9000A459D8B0CEEF05F0D0EF05F0D1EF05F0B5
:100BA0008084000EA76F010EA66F68056911D8B486
:100BB000DCEF05F0DEEF05F07BEF05F03DEF06F032
:100BC000B8EC09F00DEC0BF0010E0C6E010E80EC90
:100BD0000AF0010E00019E6F080E9F6F62C0A0F028
:100BE00063C0A1F0D5EC0AF0020E0001A56F450E1E
:100BF000A46FA90EE82EFED7A42FFCD7A52FFAD7F5
:100C000000D0020E0001A56F450EA46FA90EE82EBC
:100C1000FED7A42FFCD7A52FFAD700D0010E0C6E5B
:100C2000020E80EC0AF01A0E00019E6F080E9F6FF4
:100C300060C0A0F061C0A1F0D5EC0AF0020E000186
:100C4000A56F450EA46FA90EE82EFED7A42FFCD7E2
:100C5000A52FFAD700D0020E0001A56F450EA46F94
:100C6000A90EE82EFED7A42FFCD7A52FFAD700D0C7
:100C7000000E0001A76F000EA66FA651A711D8A401
:100C800044EF06F046EF06F0E0EF05F0D5EF05F093
:100C900007EF00F0000E196E17BE53EF06F051EF8C
:100CA00006F065EF06F0171E161E151E141E131E05
:100CB000121E111E106C000E112212221322142279
:100CC000152216221722010E196E0FBE6CEF06F0C8
:100CD0006AEF06F07EEF06F00F1E0E1E0D1E0C1EB4
:100CE0000B1E0A1E091E086C000E09220A220B2286
:100CF0000C220D220E220F22010E191A20EE1AF0DC
:100D0000070EDE6AE806FDE21050111012101310F3
:100D10001410151016101710D8B491EF06F093EFB9
:100D200006F0E5EF06F0010E186EA1EF06F0D89080
:100D30001036113612361336143615361636173667
:100D4000182A17AEA6EF06F0A8EF06F097EF06F008
:100D5000D8901A361B361C361D361E361F362036E6
:100D600021361050085C1150095812500A5813507F
:100D70000B5814500C5815500D5816500E5817504B
:100D80000F58D8A0C6EF06F0C8EF06F0D9EF06F06E
:100D90001050085E1150095A12500A5A13500B5A3B
:100DA00014500C5A15500D5A16500E5A17500F5A0F
:100DB0001A80D8901732163215321432133212328A
:100DC00011321032182EA8EF06F01950D8B4EBEFFC
:100DD00006F0EDEF06F0FDEF06F0211E201E1F1EAF
:100DE0001E1E1D1E1C1E1B1E1A6C000E1B221C220A
:100DF0001D221E221F22202221221AC008F01BC001
:100E000009F01CC00AF01DC00BF01EC00CF01FC082
:100E10000DF020C00EF021C00FF01200000E196E70
:100E20000FBE17EF07F015EF07F029EF07F00F1EC1
:100E30000E1E0D1E0C1E0B1E0A1E091E086C000E37
:100E400009220A220B220C220D220E220F22010E51
:100E5000196E17BE30EF07F02EEF07F040EF07F0E6
:100E6000171E161E151E141E131E121E111E106CA8
:100E7000000E1122122213221422152216221722EA
:100E80001050111012101310141015101610171006
:100E9000D8B44DEF07F04FEF07F097EF07F0010ED2
:100EA000186E5DEF07F0D8901036113612361336F3
:100EB0001436153616361736182A17AE62EF07F0B5
:100EC00064EF07F053EF07F01050085C1150095819
:100ED00012500A5813500B5814500C5815500D58F6
:100EE00016500E5817500F58D8A079EF07F07BEF27
:100EF00007F08BEF07F01050085E1150095A12509E
:100F00000A5A13500B5A14500C5A15500D5A1650B9
:100F10000E5A17500F5AD890173216321532143213
:100F20001332123211321032182E64EF07F01950BA
:100F3000D8B49DEF07F09FEF07F0AFEF07F00F1E5B
:100F40000E1E0D1E0C1E0B1E0A1E091E086C000E26
:100F500009220A220B220C220D220E220F2208C087
:100F600008F009C009F00AC00AF00BC00BF00CC071
:100F70000CF00DC00DF00EC00EF00FC00FF01200FF
:100F80004EC0D9FF4FC0DAFFDECFF6FFDDCFF7FF4F
:100F90000800F550250AD8A4D0EF07F0D2EF07F0EB
:100FA00052EF08F04EC0D9FF4FC0DAFFDE2A000E24
:100FB000DD22000E536E000E526E52C056F0546881
:100FC00055684EC0D9FF4FC0DAFFDECF94F0DDCFB9
:100FD00095F094C0F6FF95C0F7FF0800F550640A3D
:100FE000D8B4F5EF07F0F7EF07F005EF08F094C07D
:100FF000F6FF95C0F7FF0800F550690AD8A403EF83
:1010000008F005EF08F049EF08F050C0D9FF51C0D3
:10101000DAFFDFCF8AF0020EDE26DFCF8BF0000E84
:10102000DD228AC0D9FF8BC0DAFFDECF8CF0DDCFA6
:101030008DF00001000E8DBFFF0E8E6F8F6F906FD1
:10104000916F926F936F010E94258A6F000E952118
:101050008B6F4EC0D9FF4FC0DAFF8AC0DEFF8BC056
:10106000DDFF4CC029F04DC02AF08CC02BF08DC0A4
:101070002CF08EC02DF08FC02EF090C02FF091C0BC
:1010800030F092C031F093C032F01AEC04F066EF09
:1010900008F04EC0D9FF4FC0DAFFDE2A000EDD2275
:1010A00066EF08F04EC0D9FF4FC0DAFFDECFF6FF83
:1010B000DDCFF7FF0800F5500E6E0F6A4CC010F040
:1010C0004DC011F0E5EC08F049EF08F01200060001
:1010D000F2A26DEF08F06FEF08F0C7EF08F0000123
:1010E00066516711D8A477EF08F079EF08F0A1EF07
:1010F00008F064516511D8A480EF08F082EF08F081
:10110000A1EF08F0000E696F010E686F8086F0860F
:10111000F088000E636F000E626F000E616F000EAC
:10112000606F8080030E076E8A0E066E560EE82EE4
:10113000FED7062EFCD7072EFAD780908096C4EFF4
:1011400008F066056711D8A4A8EF08F0AAEF08F028
:10115000C4EF08F064056511D8A4B1EF08F0B3EF4F
:1011600008F0C4EF08F0000E696F000E686F000E03
:10117000676F000E666F000E656F000E646F8092E1
:10118000809480961AEC0BF0F292E3EF08F0F0A056
:10119000CCEF08F0CEEF08F0D6EF08F0000E00011B
:1011A000676F010E666FF090E3EF08F0F0A2DBEFDF
:1011B00008F0DDEF08F0E3EF08F0000E0001656FC6
:1011C000010E646FF0925792110010501110D8B4B4
:1011D000ECEF08F0EEEF08F0F7EF08F01050111008
:1011E000D8A4F5EF08F0F7EF08F0FCEF08F00E5088
:1011F0002EEC0BF02FEF09F020EE09F01050D9265D
:101200001150DA22DE50DE10D8B409EF09F00BEFEE
:1012100009F026EF09F020EE09F01050D926115000
:10122000DA2210EE03F01050E1261150E222DE50D7
:10123000E65CE650800A166EDE50800A1658D8B07A
:1012400024EF09F026EF09F02FEF09F020EE03F06C
:101250001050D9261150DA22DE2A000EDD221200AB
:10126000096E838209C008F0010E0816083A8350FF
:101270000818EF0B0818836E09C008F0D8900832E0
:10128000010E0816083A084683500818DF0B0818A4
:10129000836E09C008F0D8900832D8900832010E49
:1012A0000816083A0846084683500818BF0B081865
:1012B000836E09C008F0D8900832D8900832D890D0
:1012C0000832010E081608320832835008187F0BC6
:1012D0000818836E100EE82EFED700D08392100EF1
:1012E000E82EFED700D01200026E838202C001F009
:1012F000010E0116013A83500118EF0B0118836E9D
:1013000002C001F0D8900132010E0116013A0146E7
:1013100083500118DF0B0118836E02C001F0D890D2
:101320000132D8900132010E0116013A0146014600
:1013300083500118BF0B0118836E02C001F0D890D2
:101340000132D8900132D8900132010E01160132DB
:101350000132835001187F0B0118836E100EE82EA6
:10136000FED700D08392100EE82EFED700D01200D8
:1013700083928398839A839C839E410E0C6EEE0E1B
:10138000E82EFED70C2EFCD700D0030E30EC09F06F
:10139000060E0C6E300EE82EFED70C2EFCD700D0B9
:1013A000030E30EC09F0210EE82EFED700F0030EFC
:1013B00030EC09F0020E30EC09F0010E0A6E000E5E
:1013C000E9EC0AF0030E0C6E980EE82EFED70C2EF8
:1013D000FCD7280E0A6E000EE9EC0AF00C0E0A6E1D
:1013E000000EE9EC0AF0060E0A6E000EE9EC0AF0B7
:1013F000120023BEFEEF09F000EF0AF006EF0AF03C
:1014000022C027F023C028F00AEF0AF0000E286E51
:10141000000E276E000E266E000E256E1CEF0AF0E1
:10142000000E0F6E200E0E6E1EC010F01FC011F0C9
:10143000E5EC08F0254A262A2750255C2650800A2C
:10144000246E2850800A2458D8A029EF0AF02BEFE8
:101450000AF010EF0AF020C017F021C018F01EC0EB
:1014600019F01FC01AF05EEC0AF0120098C09CF050
:1014700099C09DF04AEF0AF096C04CF097C04DF02D
:101480009C0E4E6E000E4F6E9AC050F09BC051F0F5
:10149000C0EC07F09CC0F6FF9DC0F7FF0800F550B8
:1014A0000009D8A456EF0AF058EF0AF03CEF0AF012
:1014B000000E0001976F000E966F1200000E1D6E59
:1014C000000E1C6E6FEF0AF01BC00EF00F6A19C001
:1014D00010F01AC011F0E5EC08F01C4A1D2A1C504F
:1014E0001724D96E1D501820DA6EDF501B6E1B506A
:1014F000D8A47DEF0AF07FEF0AF064EF0AF0120043
:101500000D6E000E0E6E0D04D8A489EF0AF08BEF5D
:101510000AF08DEF0AF0800E0E6E020E0D18D8A4A0
:1015200094EF0AF096EF0AF098EF0AF0C00E0E6EF4
:101530000E500C240E6E0EC00AF0000EE9EC0AF0FC
:1015400012001BBEAEEF0AF01B5006E11A04D8B021
:10155000ACEF0AF0AEEF0AF0BCEF0AF01AC01CF0D4
:101560001BC01DF01C1E1D1E1C4A1D2A1CC01AF08B
:101570001DC01BF0C0EF0AF01AC01AF01BC01BF010
:10158000120000EE60F02A0EEE6AE806FDE1566AEF
:10159000556A546A536A526A57905792000EF86E11
:1015A000080EF76E000158EF05F0A00E0001A26FC3
:1015B000000EA36F000E966F000E976F9EC098F0FE
:1015C0009FC099F0A20E9A6F000E9B6F36EC0AF046
:1015D00012000B6E0BB002D0839001D0838000D03C
:1015E00000D000F00A380F0B30EC09F00A500F0B56
:1015F00030EC09F01200046E04B002D0839001D0E8
:10160000838000D000D000F003380F0B74EC09F099
:1016100003500F0B74EC09F01200010E0A6E000E5D
:10162000E9EC0AF0030E0C6E980EE82EFED70C2E95
:10163000FCD71200010E036E000EFBEC0AF0030E45
:10164000056E980EE82EFED7052EFCD712000C6E04
:101650000CC00AF0010EE9EC0AF012000D6E0D50FC
:0616600027EC0BF0120064
:020000040020DA
:08000000FFFFFFFFFFFFFFFF00
:020000040030CA
:0E00000000001F1EFF8181FF0FC00FE00F40A8
:00000001FF
